:020000040800F2
:10000000780C0020A9010008F92F0008AD20000895
:10001000AD2F000875090008C33900080000000072
:10002000000000000000000000000000B9360008D9
:10003000950900080000000039340008BB360008AC
:10004000C3010008C3010008C3010008C301000880
:10005000C3010008C3010008C3010008C301000870
:10006000C3010008C3010008C3010008C301000860
:10007000C3010008C3010008C3010008C301000850
:10008000C3010008C3010008C3010008000000000C
:10009000000000000000000000000000C301000894
:1000A000C3010008C3010008C3010008C301000820
:1000B000C3010008C3010008C3010008B120000803
:1000C000C3010008C3010008C3010008C301000800
:1000D000C3010008C3010008C301000800000000BC
:1000E000C3010008C3010008C301000800000000AC
:1000F000000000000000000000000000C301000834
:1001000000000000C3010008C3010008C30100088B
:1001100000000000000000000000000000000000DF
:10012000C3010008C3010008C3010008C30100089F
:10013000C3010008000000000000000000000000F3
:10014000000000000000000000000000C3010008E3
:10015000C3010008C3010008C3010008C30100086F
:10016000C3010008C30100080000000000000000F7
:10017000000000000000000000000000000000007F
:1001800000000000C30100080000000000000000A3
:10019000C3010008DFF80CD000F046FB0048004720
:1001A000C5430008780C00200648804706480047F1
:1001B000FEE7FEE7FEE7FEE7FEE7FEE7FEE7FEE717
:1001C000FEE7FEE745370008950100082DE9F05FDE
:1001D0000546002092469B468846064681464024B6
:1001E0001BE0284641464746224600F034FA534673
:1001F0005A46C01A914110D311461846224600F0C3
:100200001BFA2D1A67EB01084F46224601200021F8
:1002100000F012FA17EB00094E41201EA4F1010470
:10022000DFDC484631462A464346BDE8F09FD2B25D
:1002300001E000F8012B491EFBD270470022F6E7CF
:1002400010B513460A4604461946FFF7F0FF20464C
:1002500010BD2DE9FE4F804681EA0300C00F0C4619
:10026000009021F0004123F00045B8EB0200A941C5
:1002700005D24046214690461C460B46024623F0D6
:100280000040104347D0270DC7F30A00C3F30A51BB
:100290000290401A019040286BDAC3F3130040F437
:1002A000801B0098924620B10023D2EB030A63EB37
:1002B0000B0B01985946C0F14002504600F0BCF9C2
:1002C00006460D4650465946019A00F0D4F910EB07
:1002D00008006141002487EA115284EAE7731A4357
:1002E00040D0009A62B3019A012A4FEA075215DC06
:1002F000001B61EB02014FF0004202EA0752CDE918
:100300000042001C41F5801132462B4600F00BFAEA
:1003100003B0BDE8F08F40462146F9E7001B61EBD2
:100320000201001C41F5801300185B412018A2F562
:10033000001747EB030140EAD570B6196D4111E093
:100340006D084FEA360645EAC0754FEA0752001BB2
:1003500061EB0201001C41F5801149084FEA3000B1
:100360000019514132462B4603B0BDE8F04F00F072
:10037000CBB90098012240000023D0EB020263EBCE
:10038000E073009821464FEAE074B8EB000061EB9F
:100390000401E9E783F000435BE781F0004158E79F
:1003A0002DE9FE4F81EA030404F0004421F00041EE
:1003B00000944FF0000B23F0004350EA01045ED09C
:1003C00052EA03045BD0C3F30A54C1F30A552C4428
:1003D000A4F2F3340194A0FB0254C1F3130141F4DD
:1003E0008011C3F3130343F4801301FB024400FBA9
:1003F000034E840A970A44EA815447EA8357A4FBD0
:10040000076802958D0A05FB07854FEA932C04FBCC
:100410000C542705029D4FEA065847EA1637B5EBFC
:1004200008056EEB070C870E920E47EA811742EA29
:100430008312A7FB0201B6EB0B0164EB00042B0D4A
:1004400043EA0C335E1844EB1C50DA465146E7FB96
:100450000201C5F313044FEA0B3343EA14534FEA86
:100460000432019C43EA0603A4F10C040294009CAC
:10047000CDE900B400F057F903B0BDE8F08F0020DB
:100480000146F9E72DE9F04D81EA030404F0004B41
:1004900021F0004514464FF0000A23F0004150EAD5
:1004A000050220D054EA01021DD0C5F30A570246C6
:1004B000C5F31303C1F31300C1F30A5640F48015CA
:1004C00043F48013A7EB0608101BD64608F2FD384C
:1004D00073EB050002D308F1010801E092185B41BB
:1004E000B8F1000F03DA00200146BDE8F08D0020CE
:1004F0004FF48011064684460EE0171B73EB050788
:1005000005D3121B63EB050306434CEA010C4908B3
:100510004FEA300092185B4150EA0107EDD152EAF0
:10052000030012D082EA040083EA0501084305D0E3
:10053000101BAB4106D20122002306E000224FF03F
:10054000004302E06FF0010253101AEB06004CEB7F
:10055000085110EB0A0041EB0B01BDE8F04D00F033
:10056000D3B80EB540F2334102910021CDE900111C
:100570000A460B4600F0D7F803B000BD00F0004279
:1005800030F000400AD0C10D01F56071C0F31600D3
:1005900042EA0151C208400711437047002001465A
:1005A0007047000030B5041E71F1000404DB4FF009
:1005B0000044404264EB0101141E73F1000405DBAA
:1005C0001C464FF00043524263EB0403994208BFBC
:1005D000904230BD01F0004330B421F0004150EAB8
:1005E000010206D00A0DA2F56072C1F31301002AC0
:1005F00002DC30BC00207047440F44EAC104C10053
:10060000E01830BC00EBC25000F047B830B50B46E4
:10061000014600202022012409E021FA02F59D4232
:1006200005D303FA02F5491B04FA02F52844151E06
:10063000A2F10102F1DC30BD202A04DB203A00FAED
:1006400002F1002070479140C2F1200320FA03F329
:10065000194390407047202A04DB203A21FA02F027
:100660000021704721FA02F3D040C2F120029140EC
:10067000084319467047202A06DBCB17203A41FA77
:1006800002F043EAE07306E041FA02F3D040C2F11F
:10069000200291400843194670470029A8BF7047BF
:1006A000401C490008BF20F00100704710B4B0FAA8
:1006B00080FC00FA0CF050EA010404BF10BC704743
:1006C00049B1CCF1200421FA04F411FA0CF118BF5D
:1006D000012121430843A3EB0C01CB1D4FEA00612C
:1006E0004FEA102042BF002010BC704700EBC350FF
:1006F00010440029A4BF10BC7047401C490008BF2B
:1007000020F0010010BC704710B5141E73F10004F6
:1007100008DA401C41F1000192185B411A4301D1F3
:1007200020F0010010BD2DE9F04D92469B4611B11D
:10073000B1FA81F202E0B0FA80F220329046FFF77F
:100740007BFF04460F4640EA0A0041EA0B0153468C
:100750005A46084313D0114653EA010019D0C8F194
:1007600040025046FFF777FF05460E465046594671
:100770004246FFF761FF084305D0012004E0204610
:100780003946BDE8F08D0020054346EAE0762C436B
:1007900037430A986305E40AA0EB08000022FD0A2B
:1007A00044EA47540A3002D500200146E9E7010532
:1007B00010196941DDE9084500196941BDE8F04DAE
:1007C000A2E7C1F30A52C1F3130140F2FF3341F42F
:1007D00080119A4202DA00200146704740F233430A
:1007E0009A42A2F2334202DC5242FFF734BFFFF7D3
:1007F00023BF002801DBC0F10040002901DBC1F16B
:100800000041814202D24FF0004004E04FF000501E
:1008100001D14FF0C0404FEA2062EFF3008162F354
:100820001F6181F300887047064C074D06E0E068C1
:1008300040F0010394E8070098471034AC42F6D327
:10084000FFF7ACFCD04E0008F04E0008464910B54A
:100850004A6822F440324A604A6843681A434A6050
:1008600001684A6822F480724A6001684A68036934
:1008700042EA03224A6001684A6822F040724A60F4
:1008800001684A6883681A434A6001688A6822F4EA
:1008900000628A6001688A68C3681A438A60816A54
:1008A0006FF07062D14201688A6822F070628A60DB
:1008B00001688A680CD0836A1A438A6001688A6872
:1008C00022F040528A6001688A68C36A1A4301E0D4
:1008D00022F040528A6001688A6822F002028A602F
:1008E00001688A68037E42EA43028A6090F8201019
:1008F000002901684A680FD042F400624A6001682A
:100900004A6822F460424A6001684A68174C436AA8
:1009100004EB43331A4301E022F400624A600168A9
:10092000CA6A22F47002CA620168CA6A838B104CD8
:1009300004EB03531A43CA6201688A6822F4007206
:100940008A6001688A6890F8303042EA43228A60FF
:1009500001688A6822F480628A6001688A68406956
:1009600042EA8020886010BD0023014000E0FFFFC4
:100970000000F0FFFEE7000010B5044600F012FF93
:100980000349B0FBF1F16143491EFDD210BD0000E7
:1009900000093D007047704778B50024009490F836
:1009A0003C20012A19D0012280F83C200A68072344
:1009B0000568092A13D9EE680A3A02EB420293400D
:1009C0009E43EE600B788A680A3B03EB43039A4030
:1009D0000368DD682A43DA6010E0022078BD2E69E2
:1009E00002EB420293409E432E610B788A6803EB30
:1009F00043039A4003681D692A431A614A681F230A
:100A0000072A13D205686E6B521E02EB82029340D6
:100A10009E436E630B790A885B1E92B203EB8303DD
:100A20009A4003685D6B2A435A6327E005680D2AE4
:100A300012D22E6BD21F02EB820293409E432E6392
:100A40000B790A88DB1F92B203EB83039A40036899
:100A50001D6B2A431A6311E0EE6A0D3A02EB820223
:100A600093409E43EE620B790A880D3B92B203EBF2
:100A700083039A400368DD6A2A43DA62164B0568ED
:100A8000144A9D4206D10D68122D03D1556845F4D4
:100A90008005556005689D4218D10B68102B01D068
:100AA000112B13D1536843F40003536009681029D4
:100AB0000CD10A490A4A0968B1FBF2F101EB810144
:100AC000490000E0491E00910029FBD180F83C401C
:100AD000002078BD002301400020014024000020B8
:100AE00040420F000068C06C704770B504004FF0C2
:100AF000000503D0206C002610B107E0012070BD76
:100B0000204600F01DF8666484F83C60206CC00646
:100B100010D4206C20F4885040F00200206420465D
:100B2000FFF794FE6664206C20F0020040F00100A4
:100B3000206400E0012584F83C60284670BD000078
:100B400010B586B0044614216846FFF777FB1149BB
:100B5000206888421CD110480021026842F480724B
:100B60000260006800F4807005900B481438026839
:100B700042F001020260006800F0010005900220CE
:100B800000900320CDE901016946044800F0CEF849
:100B900006B010BD00200140443802400000024071
:100BA0002DE9F041044600680D4681684FF00007CA
:100BB00049050BD58068C00508D5206C40F02000A1
:100BC000206484F83C700120BDE8F08100F082F9D7
:100BD00006460FE0681C0DD025B100F07BF9801BA4
:100BE000A84207D9206C40F00400206484F83C70CF
:100BF0000320E9E7206800688007EBD521686FF0E3
:100C000012000860206C40F4007020642068816845
:100C100011F0405F13D1217E89B9C16A11F4700FC0
:100C200002D0806840050AD4206C20F480702064D3
:100C3000206CC00403D4206C40F00100206400202C
:100C4000C2E7000018B50021009190F83C20012A6D
:100C500007D0012280F83C2002689368DB0702D0AD
:100C600011E0022018BD936843F001039360204A0D
:100C7000204B1268B2FBF3F202EB420200E0521E7C
:100C80000092002AFBD102689368DB072DD0036C29
:100C900040F20164A34343F48073036453685B052B
:100CA00005D5036C23F4005343F480530364036CB1
:100CB000DB0404D5436C23F00603436400E0416485
:100CC00080F83C100C496FF02203136049680068FB
:100CD000C90602D00949884207D1816811F0405FF6
:100CE00003D1816841F080418160002018BD00007F
:100CF0002400002040420F0000230140002001405A
:100D000090F83510022903D08021416501207047F9
:100D1000052180F835100068016821F001010160AB
:100D20000020704790F83500704700002DE9F84F1B
:100D300000224FF0010803254FF00F0E0B6808FA50
:100D400002F42340A34271D14E68012E05D0022E39
:100D500003D0112E01D0122E15D18668570005FA46
:100D600007FC26EA0C06D1F80CC00CFA07FC4CEA8A
:100D7000060CC0F808C04668A6430C79C4F30014FA
:100D8000944034434460C668570005FA07FC8C68F9
:100D900026EA0C06BC403443C4604C68022C01D0E7
:100DA000122C13D1D40800EB8404A346D4F820906D
:100DB00054074FEAD46A0EFA0AF629EA06090E69C0
:100DC00006FA0AF646EA0906CBF8206004680E79AE
:100DD00024EA0C0406F00306BE40264306604C6875
:100DE000E40056D52E4C266846F4804626602468DA
:100DF00022F0030604F4804400942A4C3444A446B0
:100E0000D4F808489607370F0EFA07F6B443264E73
:100E1000B04201D1002615E0244EB04201D1012696
:100E200010E0234EB04202D102260BE031E0214E09
:100E3000B04201D1032605E01F4EB04201D1042685
:100E400000E00726BE402643CCF808681B4E3468F5
:100E50004F689C43FF0300D51C433460174E361D7A
:100E600034684F689C43BF0300D51C433460134E65
:100E7000083634684F689C43FF0200D51C43346039
:100E80000E4E0C3634684F689C43BF0200D51C439D
:100E90003460521C102AFFF451AFBDE8F88F0000F7
:100EA000443802400030014000000240000402408B
:100EB00000080240000C024000100240003C0140CB
:100EC0000069084000D0012070470AB18161704775
:100ED0000904FBE701488068704700001800002003
:100EE000704770472DE9F041026800245168C76AD5
:100EF00090F83E5090F83D60102D1CD0402D1AD037
:100F0000036C002B7ED053694FF02805DB439F070D
:100F100079D4CF43BF0576D4016C01B1946990F8C0
:100F20003D3000219D430B466ED0C91E516180F8B3
:100F30003C30BDE8F081946953694FF42A0CDB43DF
:100F40005FEAC37E4FF02A4604D06745F1D0B7422E
:100F5000EFD010E0CF43BF050DD4C16A614501D188
:100F6000012103E0C16AB14201D10821C162BDE89B
:100F7000F04101F011BC1E0716D4CE43B60513D4C0
:100F8000416CC9B21161416B11B9826B002AD0D09A
:100F9000C96B19B9816BC96B0029CAD00068416857
:100FA00041F400614160C4E79E0706D4CE43B60514
:100FB00003D4BDE8F04101F063BBE4435268640729
:100FC0004FEA02521BD4002AB3DB1A0608D4CA43E4
:100FD000520505D45A0705D5BDE8F04101F0F4BA31
:100FE0005A07A6D4C9438905A3D4102D03D0BDE860
:100FF000F04101F017BCBDE8F04101F0ABBA002AA6
:1010000097DB02E015E029E015E05A0608D4CA4350
:10101000520505D45A0705D5BDE8F04101F0D8B90D
:101020005A0786D4C943890583D4BDE8F04101F04D
:1010300066B9946967E7556825F480655560E243B1
:10104000540700D50121120601D5828900E0028BE8
:1010500080F83C3092B2FFF744FF6AE7DC0606D422
:10106000CC43A40503D4BDE8F04101F02BBC212EF4
:1010700027D0292E25D05C0655D4CC43640552D404
:101080005B0752D590F83D10438D002B8BD0126931
:10109000436A1A70426A521C4262428D521E428555
:1010A000428D002AD9D12A29D7D101684A6822F471
:1010B00080624A602221016380F83D5000F03AFAD4
:1010C00037E71C0623D4CC43640520D45B0720D526
:1010D00090F83D10438D002BBFD0436A1B781361FD
:1010E000426A521C4262428D521E4285428D002A43
:1010F000B3D12929B1D101684A6822F480624A60DB
:101100002121016380F83D5000F015FA11E75B07DB
:10111000A3D4C9438905A0D4418D00299DD0416A3B
:10112000097811610AE05B0797D4C943890594D413
:10113000418D002991D01169426A1170416A491CA0
:101140004162418D491E4185F3E6704770B5040048
:1011500025D094F83D00002520B984F83C50204665
:1011600000F054F9242084F83D002068016821F043
:10117000010101602068016841F4004101602068BC
:10118000016821F40041016000F012FB4D4A6168E2
:10119000914201D84C4900E04C49884201D20120DB
:1011A00070BD4B492368B0FBF1F15E6826F03F0645
:1011B0000E435E606368934206D94FF496735943B9
:1011C0004FF47A73B1FBF3F12368491C1E6A26F0D1
:1011D0003F06314319626168914210D84900401EB0
:1011E000B0FBF1F2521CC2F30B02042A01D204201C
:1011F00022E0B0FBF1F0401CC0F30B001CE0A26841
:10120000F2B301EBC10303EB0116431EB3FBF6F38C
:101210005B1C43F480431B0549D092B301EBC10230
:1012200002EB0111401EB0FBF1F0401CC0F30B00BB
:1012300040F4804040F400402168CA694CF6FF73D6
:101240009A431043C861D4E907100143206802683B
:1012500022F0C00211430160D4E903010143206878
:10126000826848F2FF339A4311438160D4E9050153
:1012700008432168CA6822F0FF021043C86001E0F9
:101280000EE016E02068016841F00101016025646C
:10129000202084F83D00256384F83E50002070BD76
:1012A00001EB4106431EB3FBF6F35B1CB3E70120E1
:1012B000C2E701EB4101401EB0FBF1F0401CC0F35E
:1012C0000B00B7E7A086010080841E0000093D00E6
:1012D00040420F0070477047704700002DE9F84FFB
:1012E0001F4690468A460446DDF82890FFF7F2FD37
:1012F000054694F83D0020287FD11923012240495A
:101300002046009501F0B2FB002876D194F83C000D
:10131000012872D0012084F83C0020680168C907C8
:1013200003D1016841F0010101602068016821F4E6
:1013300000610160212084F83D00102084F83E0007
:1013400000262664C4F824806785608D20852D489A
:10135000E0622B464A465146204601F0ADF890B96E
:10136000206841698069009036E02A464946204657
:1013700001F0FBFB50B1206C042804D12068016807
:1013800041F4007101600120BDE8F88F606A2168B6
:1013900000780861606A401C6062618D491E618549
:1013A000218D491E89B2218522685369DB435B0781
:1013B0000BD451B100781061606A401C6062608D8E
:1013C000401E6085208D401E20852A4649462046C5
:1013D00001F026FB0028CED1208D0028C5D154F87D
:1013E0003D0B016841F400710160202004F81E09E2
:1013F000E67766770020C7E7FFE70220C4E7000032
:10140000020010000000FFFF704770472DE9F04117
:1014100086B0044614216846FEF710FF22683F4C50
:101420003D4B3E491225012602273D4810344FF01E
:1014300004089A4221D10A6842F002020A6009684F
:1014400001F0020105914FF440718DE8E201694617
:10145000FFF76CFC206840F4001020602068002238
:1014600000F40010059011461F2000F0CFF81F2057
:1014700000F0BEF806B0BDE8F0812A4B9A421FD1B9
:101480000A6842F002020A60096801F0020105914F
:1014900019158DE8E20169468046FFF747FC0820F0
:1014A0008DE8E1000920049069464046FFF73EFCC4
:1014B000206840F480002060206800F4800029E06B
:1014C00019488242D6D1086840F0040008600868D4
:1014D00000F004000590086840F00100086008680A
:1014E000032700F00100059050158DE8E1016946E1
:1014F0000E48FFF71BFC4FF480708DE8E101694650
:101500000B48FFF713FC206840F4000020602068BF
:1015100000F400000590ADE7005400403038024070
:101520000004024000580040005C004000080240F7
:1015300000000240704770470248816802781144F9
:1015400081607047180000200B4810B5016841F415
:1015500000710160016841F480610160016841F43B
:1015600080710160032000F071F8002000F006F89F
:1015700000F024F8002010BD003C024070B50D4D75
:1015800004464FF47A712878B1FBF0F00A490968F3
:10159000B1FBF0F000F0FCFA48B9102C07D20022A1
:1015A0002146501E00F032F800206C6070BD012012
:1015B00070BD000018000020240000200B4882B0FD
:1015C000016841F480410160006800F480400090AF
:1015D0000648001F016841F080510160006800F07A
:1015E00080500090072002B000F030B8443802402C
:1015F000002809DB00F01F02012191404009800012
:1016000000F1E020C0F8001170470000F0B40E4B6C
:101610001B680C46C3F30223C3F10705042D00D950
:101620000425191D072901D2002300E0DB1E012635
:1016300006FA05F1491E214099409E40761E16404B
:101640003143F0BC02F0D0B90CED00E0064900F0E7
:10165000070208684FF6FF03184040EA0220034AD9
:1016600010430860704700000CED00E00000FA0530
:101670002DE9F0470E46050065D0DFF81481D8F853
:101680000000F7B200F00F00B04207D288F80070F7
:10169000D8F8000000F00F00B04254D128683D4C4B
:1016A000810712D5400703D5206840F4E050206040
:1016B0002878000703D5206840F460402060206847
:1016C000A96820F0F000084320602878C0072DD0DA
:1016D000304968680839012812D0022813D003283D
:1016E00011D00968890700292DDA216821F003014A
:1016F00001432160FFF7EEFB814641F2883A0EE09C
:1017000009688903EFE709688901ECE7FFF7E2FB65
:10171000A0EB0901514502D90320BDE8F0872068FC
:10172000696800F00C00B0EB810FEFD1D8F8001021
:10173000404601F00F01B14207D90770006800F080
:101740000F00B04201D00120E7E72878400705D517
:101750002068E96820F4E0500843206028780007FA
:1017600006D52068296920F4604040EAC100206065
:1017700000F02EF82168084AC1F30311515CC840FB
:101780000649086006480068FFF7F8FE0020C4E735
:10179000003C024008380240B64E000824000020F9
:1017A0001C00002001480068704700002400002051
:1017B0000448054900680968044AC1F38221515C64
:1017C000C84070472400002008380240C64E000878
:1017D000154810B5006810F00C02144813D01449D5
:1017E000042A0FD0082A0ED10F4C241F2268236828
:1017F00002F03F025B0207D52068C0F38810A0FB0F
:10180000010106E0084610BD2168C1F38811A1FB63
:1018100000010023FEF7DAFC2168C1F30141491CF5
:101820004900B0FBF1F010BD083802400024F4007C
:10183000001BB7002DE9F84F04006ED02078DFF8C8
:101840003C93C007A9F104054AD009F104000168DE
:10185000C1F38101012908D00068C0F3810002288A
:101860000AD1D9F80000400206D52868800337D590
:1018700060680028E1D033E06068B0F5803F10D0A8
:10188000B0F5A02F286810D020F480302860286898
:1018900020F4802028606068A8B1FFF71BFB064693
:1018A0000DE0286840F48030F4E740F480202860A0
:1018B000F7E700BFFFF70EFB801B642873D828688A
:1018C0008003F7D50CE0FFF705FB064605E000BFF7
:1018D000FFF700FB801B6428F0D828688003F7D44A
:1018E0002078DFF89C8280074FF0000A3ED5A3489D
:1018F000001D016811F00C0F08D00068C0F38100D2
:1019000002280BD1D9F80000400207D428688007CC
:1019100016D5E068012800D112E02BE1E068B8B1EB
:101920000120C8F80000FFF7D5FA064605E000BF21
:10193000FFF7D0FA801B0228C0D828688007F7D5A7
:101940002868216920F0F80040EAC10028600DE015
:10195000C8F800A0FFF7BEFA064604E0FFF7BAFA9F
:10196000801B02281FD828688007F7D4207800073A
:1019700022D5824E83486169703671B101210160C0
:10198000FFF7A8FA074604E0FFF7A4FAC01B0228F5
:1019900009D830688007F7D50EE0C0F800A0FFF73F
:1019A00099FA074605E082E0FFF794FAC01B022887
:1019B0007DD830688007F7D42078400768D5DFF8F5
:1019C000BCB100270BF13C0BDBF80000C0000BD4CE
:1019D000DBF8001041F08051CBF80010DBF800007C
:1019E000012700F080500090674E3068C00510D489
:1019F000306840F480703060FFF76CFA009005E0CA
:101A0000FFF768FA0099401A022850D83068C005DC
:101A1000F6D55A4EA0686C3601280FD005283068DC
:101A200010D020F001003060306820F004003060F9
:101A3000A068B8B1FFF74EFA00900FE0306840F0B0
:101A40000100F4E740F004003060F7E7FFF742FAE6
:101A50000099411A41F28830814266D83068800787
:101A6000F4D50EE0FFF736FA009007E0FFF732FA00
:101A70000099411A41F28830814256D83068800777
:101A8000F4D42FB1DBF8001021F08051CBF8001016
:101A9000A069C8B33949091D0968C1F38101022948
:101AA0004AD00228504607D0C8F8600000E03CE069
:101AB000FFF710FA04463BE04746C8F86000FFF71E
:101AC00009FA064605E000BFFFF704FA801B02286A
:101AD0002BD828688001F7D4D4E907010843A16A0C
:101AE0002A4A490802EB0141626A41EA821108432D
:101AF00094F82C1040EA0161C9F800100120386602
:101B0000FFF7E8F9044606E036E000BFFFF7E2F928
:101B1000001B022809D828688001F7D52CE000BFF7
:101B2000FFF7D8F9001B022802D90320BDE8F88F7F
:101B300028688001F4D41FE00128F7D0D9F800000C
:101B4000E26900F48001914214D1226A00F03F0161
:101B500091420FD147F6C071626A0140914209D1AA
:101B6000A26A00F44031914204D1E16A00F0706051
:101B7000884201D00120D9E70020D7E7043802408D
:101B800000004742800E4742007000400000FFFF07
:101B900010B5401EB0F1807F01D3012010BD4FF081
:101BA000E02460610F21601701F01EFF0020A0619A
:101BB00007202061002010BD10B590F83C20012ABC
:101BC00022D0012280F83C20CA688C6822F440723E
:101BD00022434C6822F4806222430C6822F40062A3
:101BE00022430C6922F4805222434C6922F40052B1
:101BF0002243C969002322F480420A4301684A64EF
:101C000080F83C30002010BD022010BD70B590F867
:101C10003C20012A2CD0012480F83C40022280F88C
:101C20003D2003685A689D6822F070060A683243B6
:101C30005A60104B02689A420ED0B2F1804F0BD01E
:101C40000D4B9A4208D00D4B9A4205D00C4B9A424C
:101C500002D00C4B9A4204D1496825F08003194305
:101C6000916080F83D40002180F83C10084670BD2E
:101C7000022070BD00000140000400400008004048
:101C8000000C00400040014010B5040003D094F85F
:101C90003D0010B107E0012010BD002084F83C0099
:101CA000204600F00DF8022084F83D00211D206838
:101CB00001F056FD012084F83D00002010BD000019
:101CC00008B500680949884201D1094804E0B0F12B
:101CD000804F09D10648001F016841F001010160F1
:101CE000006800F00100009008BD00000000014005
:101CF0004438024070B5044690F83C00012817D0E3
:101D0000012584F83C50022084F83D002068826858
:101D100022F0770222F47F4282600868502830D097
:101D20000DDC20284DD005DC98B310283BD148E0CD
:101D3000022070BD302844D0402834D139E06028DA
:101D400028D0702806D0B0F5805F2CD0B0F5005FA9
:101D500029D10AE0CB68D1E90121206801F059FDC1
:101D60002068816841F0770109E0CB68D1E9012161
:101D7000206801F04EFD2068816841F48041816057
:101D800011E0CA684968206801F0F8FD5021206818
:101D900007E016E0CA684968206801F000FE60218B
:101DA000206801F040FD84F83D50002084F83C009C
:101DB00070BDCA684968206801F0E0FD40212068D4
:101DC000EFE7226801461046EBE72DE9F0410D46AA
:101DD000040003D094F83D0018B108E00120BDE8EC
:101DE000F081002084F83C00204600F03BF80220FF
:101DF00084F83D002068816844F2070291438160C5
:101E0000211D206801F0ACFC226890689169166A77
:101E10002B68AF69034340F20330814341EA072155
:101E2000A868EF6908434FF6FC418843E96840EA37
:101E30000720014328692F6A000140EA0730084360
:101E400069686D6926F0AA0646EA0515294393607C
:101E50002268906120680162012084F83D00002022
:101E6000BDE7000070B586B0044614216846FEF751
:101E7000E5F91E491C4E256800231C4A103902242E
:101E80001B48B54211D1156845F00205156012686E
:101E900002F0020205920A6842F002020A60096832
:101EA00001F002010591302113E0124EB54218D124
:101EB000156845F004051560126802F004020592E9
:101EC0000A6842F002020A60096801F00201059105
:101ED000C0210091CDE90143CDE903346946FEF705
:101EE00025FF06B070BD00000004004040380240ED
:101EF000000402400008004070B586B0044614217A
:101F00006846FEF79BF9164E25680024154B022102
:101F100001221548B5420ED11C6844F001041C6032
:101F20001B6803F00103059343150093CDE90112EB
:101F3000CDE903120FE0B5F1804F0FD11D6845F0D8
:101F400001051D601B68CDE9002103AD03F001030D
:101F5000029485E80E006946FEF7E8FE06B070BD03
:101F600000000140303802400000024070B50446D5
:101F700090F83C000D4601280DD0012684F83C6005
:101F8000022084F83D0042B1042A18D0082A2AD041
:101F90000C2A4DD139E0022070BD206801F04CFCC4
:101FA0002068816941F0080181612068816921F020
:101FB00004018161206881692A69114311E0206868
:101FC00001F062FC2068816941F400618161206850
:101FD000816921F480618161206881692A6941EA0F
:101FE0000221816124E0206801F07AFC2068C16947
:101FF00041F00801C1612068C16921F00401C1619B
:102000002068C1692A69114311E0206801F094FC3D
:102010002068C16941F40061C1612068C16921F48F
:102020008061C1612068C1692A6941EA0221C161F8
:1020300084F83D60002084F83C0070BD10B50400B9
:1020400003D094F83D0010B107E0012010BD00203E
:1020500084F83C00204600F00CF8022084F83D0093
:10206000211D206801F07CFB012084F83D00002048
:1020700010BD704710B504460068012201F0BCFB9A
:1020800009492068884203D1416C41F40041416410
:102090002068816801F00701062903D0016841F03A
:1020A00001010160002010BD00000140FEE70000BA
:1020B0000148FEF717BF00007804002038B5806B98
:1020C000002190F83D202B4B46F2A8141B68B3FB6F
:1020D000F4F3C3EBC30303EB830300933BB15B1E39
:1020E000009303681B689B0505D5009BF6E7036C0E
:1020F00043F020030364436B03B1D963836B03B1E3
:10210000D96303681C6824F480641C604185436BB8
:1021100003B11965836B03B1196503681C6824F06A
:1021200001041C6090F83D402023602C0BD0282433
:1021300034EA02020FD080F83D3080F83E1000BF34
:10214000FFF703F838BD80F83D3080F83E10016499
:10215000FEF7C6FE38BD0268136843F00103136042
:102160000268136843F480631360016380F83D40A4
:10217000E6E700002400002070B5044690F83D001A
:1021800094F83E10102901D0402906D1222804D10C
:1021900021680A6822F400620A60282131EA0002FC
:1021A0004FF000054FF0200626D021684968090548
:1021B00005D4602803D084F83D6084F83E50256340
:1021C00020684168090537D5416821F40061416004
:1021D000606B90F835203C49012A11D00165606B95
:1021E000FEF78EFD38B32068016821F0010101601F
:1021F00084F83D60606B1CE0256384F83D10DFE7E8
:10220000A06B0165A06BFEF77BFDA0B12068416962
:10221000C943490605D40069616A0870606A401CB8
:1022200060622068016821F00101016084F83D606E
:10223000A06B016D884710E094F83D10602910D024
:102240004169C943490605D40069616A0870606A3A
:10225000401C60622046FEF778FF206CC1071CD14D
:1022600015E084F83D6025644169C943490605D4F9
:102270000069616A0870606A401C606220680168D9
:1022800021F0010101602046FEF72AFEE5E7810703
:1022900003D4410701D4000704D52068416821F424
:1022A000E061416094F83D00216C49070BD5282876
:1022B00009D10648E062256384F83D6084F83E5009
:1022C0002046FFF707F870BDBD2000080000FFFFA3
:1022D00001684A69D24352050FD46FF480624A61A3
:1022E000002140F8301F202242738173026942F0BE
:1022F000040202610173012070470020704710B58D
:10230000C26A438D0168042B06D0438D032B08D08D
:10231000438D022B1DD012E04A6822F480624A608D
:102320000CE04B6823F480634B60042A06D0022A39
:1023300004D001680A6822F480620A6001680969B1
:10234000426A1170416A491C4162418D491E4185B2
:1023500010BD012A30D0102A2ED0042A30D0022AF3
:102360002ED00A6842F400720A6001680969426A64
:102370001170416A491C4162428D521E42850268B9
:1023800012690A70416A491C4162418D491E4185AA
:1023900001684A6822F440724A60202180F83D10AA
:1023A00090F83E200021402A80F83E100CD01221E7
:1023B0000163FEF790FF10BD0A6822F48062D3E744
:1023C0000A6842F48062CFE70163FFF71DF810BD91
:1023D00038B590F83D10222914D1418D032912D926
:1023E00001680969426A1170416A491C4162418D64
:1023F000491E4185418D032904D10068416821F4BB
:102400008061416038BDC26A022AFBD0012901D037
:102410000029F7D1274946F2A81300220968B1FB29
:10242000F3F101EB8101009101682023009C641EFF
:10243000009422D00C68A405F8D40C6824F48064BD
:102440000C6001684C6824F4E0644C600168096920
:10245000446A2170416A491C4162418D491E41858F
:1024600080F83D3090F83E1080F83E2040291DD085
:1024700012210163FEF72FFF38BD046C44F02004E5
:1024800004644C6824F4E0644C6001680969446A9F
:102490002170416A491C4162418D491E418580F885
:1024A0003D3080F83E20FEF750FE38BD0263FEF757
:1024B000ABFF38BD24000020F8B50446C06A1E46B4
:1024C0000D461746082807D0012805D010F5803F93
:1024D00002D0206B122804D12068016841F4807179
:1024E0000160134600224FF001112046009600F0D3
:1024F000BDFA40B120680068C00502D54FF40070F5
:1025000020640320F8BD2069B0F5804F0ED006206E
:10251000216800EAD51040F0F000086133463A46E1
:102520000B49204600F0D6FA78B902E005F0FE002B
:1025300000E0E8B221680861054933463A46891F40
:10254000204600F0C7FA0028DCD00120F8BD0000CA
:102550000800010010B5C16A90F83D20212A0BD176
:10256000428D52B1416A026809781161416A491C81
:102570004162418D491E418510BD0022202308295A
:1025800010D020290ED011F5803F0BD001684C6887
:1025900024F4E0644C601121016380F83E2080F84F
:1025A0003D300EE001684C6824F4E0644C60016842
:1025B0000C6844F400740C60026380F83D3080F8CD
:1025C0003E20FEF789FE10BD10B590F83D1090F842
:1025D0003E30C26A048DB4B1212903D0402B11D101
:1025E00022290FD1418DE1B390F83E10402942D00D
:1025F000416A026809781161416A491C4162418D52
:10260000491E418510BD2129E8D120230021082A37
:1026100013D0202A11D012F5803F0ED002685468E2
:1026200024F4E06454601122026380F83E1080F8C4
:102630003D3000BFFEF750FE10BD0268546824F420
:10264000E06454600268146844F400741460016328
:1026500080F83D3090F83E2080F83E10402AE9D1C5
:1026600000E002E0FEF7D1FE10BD0068416821F4F1
:102670008061416010BDBDE8104000F0D3B800009B
:1026800078B590F83E50C26A036B90F83D60002424
:102690000168222E7AD1066D0EB9402D76D0056DD7
:1026A0001DB90569B5F5404F09D0458D05B3468D77
:1026B000384D012E0ED0438D022B3AD05DE04A6991
:1026C0008A6900920A6842F480720A60016D491CAE
:1026D000016578BDAA4213D10A6822F480620A60BB
:1026E00001684A68120503D50A6822F4806216E080
:1026F0004A698A6900920A6842F400720A6039E005
:10270000082A10D0202A0ED0122B0AD0042A03D077
:10271000022A01D0102AE7D10A6842F480620A60D6
:1027200024E0012AE0D00A6822F480620A6001688D
:10273000DEE7042A21D0022A1FD0102A1DD00B6800
:1027400023F480630B6001680B6843F400630B6043
:1027500001684B681B0509D5AA4212D0012A10D086
:10276000082A0ED0102A0CD0202A0AD001684A6903
:1027700089690091046578BD08E00B6843F48063C3
:10278000E5E74A6842F480524A60EFE748698869A1
:102790000090F0E70000FFFF90F83E10402910D0B5
:1027A0000169B1F5804F19D0016DA9B3016D0129FF
:1027B00010D1416C5FF0F10201F4407142EAD11195
:1027C00006E0016D0029416C05D0C9B241F001015C
:1027D00000680161704701F0FE01F9E790F83D10D3
:1027E0002129416C09D0C9B241F00101026811618F
:1027F000416B29B1C96B49B902E001F0FE01F5E76F
:10280000816B0029E6D0C96B0029E3D000684168DC
:1028100041F4006141607047FFE7416CF02201F430
:102820004071CBE710B590F83D10026D22B3026DF8
:10283000012A2FD0026D022A1DD1222931D0428DCA
:102840000AB1212933D0428D002A14D1212912D175
:1028500001684A6822F4E0624A6001680A6842F44A
:1028600000720A6000210163202280F83D2080F878
:102870003E10FEF7CAFD10BDC16C0129816C02D06B
:10288000C1F3072108E00268C9B21161016D891C1A
:10289000016510BD816CC9B202681161016D491CEE
:1028A000F6E70068016841F48071016010BD416A7B
:1028B000026809781161416A491C4162418D491ED3
:1028C000418510BDF8B590F83D6004460068416848
:1028D00021F4E061416020680025416900910168B0
:1028E00041F0010101602068016821F4806101600C
:1028F00020684168090520D5474F222E48D02A2E4E
:1029000046D0616B096849686185618D19B1216C98
:1029100041F004012164416821F400614160606B71
:10292000FEF700FA012808D0606B0765606BFEF7C0
:10293000E7F910B1606B016D8847608D08B32068BE
:102940004169C943490708D40069616A0870606A2F
:10295000401C6062608D401E608520684169C943EB
:10296000490608D40069616A0870606A401C6062A8
:10297000608D401E6085608D18B1206C40F00400B1
:102980002064206C00B32046BDE8F840FFF7F4BB9C
:10299000A16B096849686185618D19B1216C41F0AD
:1029A00004012164416821F400614160A06BFEF7DD
:1029B000B9F90128C1D0A06B0765A06BFEF7A0F99B
:1029C0000028BAD0A06BB6E72A2E06D125632820AE
:1029D00084F83D002046FEF7ADFD94F83D10202020
:1029E00028290DD0216B222901D0222E07D1256361
:1029F00084F83D0084F83E502046FEF79BFDF8BD6C
:102A00000649E162256384F83D0084F83E50204683
:102A1000FEF760FCF8BD0000BD2000080000FFFFCD
:102A200070B516460D4604460DE02046FFF750FCF3
:102A300008B1012070BD681C05D0FEF74BFA801B61
:102A4000A84207D835B120684069C0434007ECD49C
:102A5000002070BD002044F8300F20216173A07366
:102A6000216941F0200121612073E2E72DE9F0475F
:102A70001E4690460D460446C1F30747DDF82090F8
:102A800008E0701C06D0FEF725FAA0EB0900B04262
:102A90000FD876B12068012F18D0806925EA000090
:102AA0000004000C14D000214145EAD00020BDE80C
:102AB000F087002044F8300F20216173A073216952
:102AC00041F02001216120730120F0E74069E5E732
:102AD0000121E9E72DE9F0479A4691460E46044662
:102AE00000254FF02008C1F3074725E02068406922
:102AF000C043400514D42068016841F400710160AE
:102B000021686FF480604861256384F83D8084F813
:102B10003E50206C40F00400206484F83C501FE0DC
:102B2000B9F1FF3F08D0FEF7D5F9A0EB0A014945FE
:102B30000CD8B9F1000F09D02068012F13D080699B
:102B400026EA00000004000C0BD0CFE744F8305F09
:102B500084F80D80A573206940F020002061257362
:102B60000120BDE8F0874069EAE770B516460D46DA
:102B700004460DE02046FFF7ABFB08B1012070BD15
:102B8000681C05D0FEF7A6F9801BA84207D835B10E
:102B900020684069C0430006ECD4002070BD0020CE
:102BA00044F8300F20216173A073216941F02001A6
:102BB00021612073E2E700007FB5002414480094EF
:102BC0000194029411490394C0E9001484600461E3
:102BD000047680F820400F49C0E90A140125C56138
:102BE000C46080F830404561FDF77FFF08B1FDF714
:102BF000D2FE0095CDE9015469460548FDF7CCFEAB
:102C0000002801D0FDF7C7FE7FBD00000020014075
:102C1000300400200100000FF0B587B01421684691
:102C2000FDF70CFB21480024016841F0040101601C
:102C3000016801F004010591016841F08001016023
:102C4000016801F080010591016841F00101016016
:102C5000016801F001010591016841F00201016084
:102C60000068134E00F002000590002282213046D9
:102C7000FEF72BF90F4F002210213846FEF725F9F9
:102C8000822000900125CDE9015469463046039425
:102C9000FEF74CF810200090CDE901546946384603
:102CA0000394FEF743F807B0F0BD0000303802404F
:102CB00000080240000002400D4810B50B490160B9
:102CC0000C49416000214FF480428160C0E9031249
:102CD00041618161C1610162FEF738FA002803D0C9
:102CE000BDE81040FDF757BE10BD00000054004085
:102CF00078040020801A06000D4810B50B490160C9
:102D00000C49416000214FF480428160C0E9031208
:102D100041618161C1610162FEF718FA002803D0A8
:102D2000BDE81040FDF737BE10BD00000058004060
:102D3000CC040020A08601000D4810B50B490160AD
:102D40000C49416000214FF480428160C0E90312C8
:102D500041618161C1610162FEF7F8F9002803D089
:102D6000BDE81040FDF717BE10BD0000005C00403C
:102D700020050020A086010030B595B000240F94F6
:102D800010941194129413941C2108A81494FDF724
:102D900055FA20216846FDF751FA29482749016074
:102DA0001F21C0E9011440F2E731C0E9031480217A
:102DB000C0E90541FEF768FF08B1FDF7ECFD4FF4EF
:102DC00080550FA91E480F95FEF794FF08B1FDF737
:102DD000E2FD1B48FFF732F908B1FDF7DCFD139463
:102DE00013A917481494FEF711FF08B1FDF7D3FD9E
:102DF0006020CDE908040A940B940C940D940422ED
:102E000008A90F480E94FFF7B1F808B1FDF7C3FD0C
:102E100000944FF40050059001940294CDE90345CD
:102E2000694607480794FEF7C7FE08B1FDF7B3FDF2
:102E30000348FFF761F815B030BD00000000014005
:102E40007405002010B58EB00024079408940994EE
:102E50000A940B941C2168460C94FDF7EFF91E4868
:102E60004FF0804101601F21C0E9011440F2E731B9
:102E7000C0E9031480218161FEF706FF08B1FDF768
:102E80008AFD4FF48050079007A91348FEF732FFE0
:102E900008B1FDF780FD1048FFF7D0F808B1FDF745
:102EA0007AFD0B940BA90C480C94FEF7AFFE08B109
:102EB000FDF771FD6020CDE900040294002269460F
:102EC00005480494FFF752F808B1FDF764FD024885
:102ED000FFF712F80EB010BDB405002010B58CB08D
:102EE00024216846FDF7AAF90024154809941349DE
:102EF0000A94C0E900144FF6FF71C0E90241046171
:102F000084610120CDE90004CDE902040494CDE9F7
:102F10000540079469460A480894FEF756FF08B131
:102F2000FDF739FD099409A905480A94FEF76EFEDC
:102F3000002801D0FDF72FFD0CB010BD00040040AB
:102F4000F405002010B58CB024216846FDF776F911
:102F500000241548099413490A94C0E900144FF657
:102F6000FF71C0E90241046184610120CDE90004E0
:102F7000CDE902040494CDE90540079469460A4866
:102F80000894FEF722FF08B1FDF705FD099409A991
:102F900005480A94FEF73AFE002801D0FDF7FBFC35
:102FA0000CB010BD0008004034060020FEE7000011
:102FB000012807D0022809D10A460548102100BF80
:102FC000FDF783BF0A4602210248F9E77047000077
:102FD0000000024000080240012805D0022802D16A
:102FE0000348006881637047024800684163704786
:102FF00074050020B40500207047000010B50021C2
:10300000074C0A46002004EBC1131A54401CC0B2FE
:103010008028FAD3491CC9B20829F3D310BD000097
:1030200030000020F0B50B4424E0044685181DE074
:103030007F2C19D8002917DB3F2915DCCE1701EBAF
:1030400056764FEAE60C0D4F26F0070607EBCC1735
:103050002744A1EB060E97F800C0012606FA0EF6EB
:103060002CEA060C87F800C0641C24B2A542DFDC01
:10307000491C09B28B42D8DCF0BD000030000020B2
:1030800000204FF47A720021491C9142FCD3401C6D
:103090009042F8D3704710B5FFF7F2FFAE2000F072
:1030A00045F9D52000F042F9802000F03FF9A82032
:1030B00000F03CF93F2000F039F9D32000F036F958
:1030C000002000F033F9402000F030F9A12000F09A
:1030D0002DF9C82000F02AF9DA2000F027F9122093
:1030E00000F024F9812000F021F9CF2000F01EF932
:1030F000D92000F01BF9F12000F018F9DB2000F0D6
:1031000015F9302000F012F9A42000F00FF9A620E4
:1031100000F00CF98D2000F009F9142000F006F9F8
:10312000AF2000F003F9FFF769FFBDE8104000F0A1
:10313000E9B80FB470B5C0B014460D46064648AAAB
:103140006846479900F03EFC23466A4629463046C9
:1031500000F094F840B070BC5DF814FB10B50C465C
:1031600040F0B00000F0E2F8102040EA141000F047
:10317000DDF804F00F00BDE8104000F0D7B8000003
:1031800008B5082B0DD0062B0AD10A4B02EB4202E0
:1031900003EB4202C03A00920823062200F00EF828
:1031A00008BD054B03EB0212A2F50072102300923A
:1031B0000822F3E77C4C00088C4600082DE9F04F0C
:1031C0001F4616460C4682460025FFF72BFF7F1E42
:1031D000F81707EB50700121DFF89CB001EBE00716
:1031E00045E000203FE000BF0AEB00037F2B38D80A
:1031F000E11704EB5171CA1021F00701611A002C8C
:1032000003DA521E083112B209B202EB0509B9F114
:10321000070F10D80BEBC91E1EF8032015FB06F88C
:10322000DDF824C0844418F80CC00CFA01FC42EA12
:103230000C020EF8032009F10102072A11D80BEB4A
:10324000C91202EB030898F8803015FB06FC099AB6
:10325000C1F1080102441CF80220CA40134388F857
:103260008030401CC0B2B042BED36D1CEDB2AF4244
:10327000B7DCBDE8F08F0000300000202DE9F043FE
:1032800000241F46154689468046264634E010062F
:103290000BD4641C08EB0600A4B200B23B464946BE
:1032A000FFF76EFFF01986B226E00620B0EB521F42
:1032B00002D1641CA0B206E00E20B0EB121F08D1B0
:1032C000641CA0B211E0295C002918D0401C84B213
:1032D00012E01E20B0EBD20F04F101040BD1A0B21A
:1032E000295C00290BD0401C80B2295C002906D043
:1032F000401C80B2E7E7A4B22A5D002AC7D1BDE82E
:10330000F083000070B5084D002400212046FFF72F
:1033100025FF05EBC410802100F018F8641CE4B20E
:10332000082CF2D370BD0000300000201CB5002135
:1033300001918DF805000A200090022301AA78214E
:103340000148FDF7CBFF1CBD78040020F8B5064608
:103350000C46481C01F064F9054640202870002006
:1033600004E0315C2A18401C5170C0B2A042F8D36E
:103370000A200090631C2A4678210448FDF7AEFF1E
:103380002846BDE8F84000F0F5BF000078040020B2
:103390002DE9FC4300264FF001084FF007094FF0DC
:1033A000800C6A468DF803608DF802608DF8056028
:1033B0008DF801802F2305248DF804608DF800908E
:1033C000002109E05B1EDBB2072902D2491CC9B209
:1033D00002E00021641EE4B22CFA01F5075D2F42E1
:1033E00001D1002CEED1A3F10801CCB214E00521EB
:1033F000551815F8015C2D0602D509B1012700E02A
:103400000027555C6D0055543D445554491EC9B2C2
:10341000FF29EDD3641EE4B2002CE8D10021445C06
:10342000555C6C404454491CC9B20529F7D9082B96
:10343000B8D80078BDE8FC837047000010B5064C92
:10344000012291022046FDF740FD20460122BDE801
:1034500010400821FDF739BD000402402DE9FC476A
:103460000027400689463E463D46040E00F0FEF821
:103470006D1E15F0FF0534D000F0D0F8204600F0A6
:10348000B9F80028F2D1484600F0B4F80028EDD190
:1034900000F0C4F804F1010808F0FF0000F0AAF8F9
:1034A0000028E3D100F06AF80746002000F066F833
:1034B0000646012000F062F8824600F0D7F88DF849
:1034C00003808DF802708DF8016000208DF80540B2
:1034D0008DF800008DF804906846FFF759FF5045BD
:1034E000C4D147EA0620BDE8FC87000010B50721DB
:1034F0000020FFF7B3FFFDF734F89FED081B53ECF6
:10350000112BFCF74DFF9FED071B53EC112BFCF724
:1035100041FFFDF75FF800EE100A10BD7B14AE47C7
:10352000E17A943F666666666612714070B5124D28
:10353000012208212846FDF7C8FC0220FDF71CFAED
:103540000122960231462846FDF7BFFC0520FDF713
:1035500013FA08212846FDF7B3FC08B1012400E066
:103560000024002231462846FDF7AFFC0320FDF77A
:1035700003FA204670BD00000004024070B5064604
:103580005FF00804FFF7D2FF00284FEA450003D0A0
:10359000C0B240F0010501E000F0FE05641E14F029
:1035A000FF04EFD1304600F003F8284670BD00005C
:1035B00070B50F4CD0B1012208212046FDF785FCE3
:1035C0000220FDF7D9F90122950229462046FDF790
:1035D0007CFC0620FDF7D0F9002229462046FDF7A5
:1035E00074FCBDE870400320FDF7C6B90022E3E794
:1035F0000004024070B505460824280601D50120C4
:1036000000E00020FFF7D4FF6806050E641E14F0EA
:10361000FF04F2D1BDE87040FFF788BF70B5124CCF
:10362000012208212046FDF750FC0520FDF7A4F9F2
:103630000122950229462046FDF747FC0520FDF7AB
:103640009BF9002208212046FDF73FFC0520FDF7ED
:1036500093F9002229462046FDF737FCBDE870406B
:103660000520FDF789B900000004024070B5114C37
:103670004FF48065002229462046FDF726FC0520F0
:10368000FDF77AF9002208212046FDF71EFC0520EF
:10369000FDF772F9012229462046FDF716FC0520A8
:1036A000FDF76AF92046BDE8704001220821FDF7C8
:1036B0000CBC0000000402407047FDF73DBF000055
:1036C00030B593B030216846FCF7B8FD14210CA842
:1036D000FCF7B4FD19480025016841F080510160F4
:1036E000006800F0805011901548016821F44041B5
:1036F00041F4004101600068022400F44040119050
:1037000001200090000401908001CDE906400620D0
:1037100008904820CDE9090407200B906846FEF781
:1037200089F80CA90F2081E83100E002CDE90F05EE
:1037300002210CA8FDF79CFF13B030BD40380240B9
:10374000007000400548016841F4700101600349C0
:103750004FF00060803908607047000088ED00E09D
:10376000F0B502681D4B1E4C9F031E4D1E4E984225
:1037700007D0B84205D0A04203D0A84201D0B04241
:1037800004D122F0700C4A6842EA0C02984210D030
:10379000B8420ED0A0420CD0A8420AD0B04208D005
:1037A000124CA04205D0124CA04202D0114CA042B3
:1037B00003D122F44074CA6822434C6922F080028B
:1037C000224302608A68C2620A688262984201D11A
:1037D0000969016301214161F0BD00000000014061
:1037E0000004004000080040000C00400040014080
:1037F000004401400048014010B501F01F030121C1
:10380000046A99408C430462016A9A401143016240
:1038100010BD10B5846842EA032224F47F440A43B1
:103820002243826010BD826822F070020A4342F097
:10383000070181607047000030B5026A22F0010282
:103840000262026A4368846924F073050C682C43A1
:1038500022F002058A682A430A4DA8420BD122F0C1
:103860000805CA6823F440732A434D6922F0040214
:103870001D438B692B434360846149684163026245
:1038800030BD00000000014030B5026A22F0100295
:103890000262026A436884690D6824F4E64444EADB
:1038A00005248D6822F0200242EA05120B4DA84241
:1038B0000ED1CD6822F0800242EA05124D6923F450
:1038C000406343EA85038D6922F0400243EA8503A1
:1038D0004360846149688163026230BD0000014039
:1038E00030B5026A22F480720262036A4268C469D7
:1038F00023F4007324F073050C682C438D6843EAAD
:1039000005230C4DA8420ED1CD6823F4006343EA91
:1039100005234D6922F4405242EA05128D6923F4D1
:10392000806342EA05124260C4614968C163036270
:1039300030BD00000000014030B5026A22F4805220
:103940000262046A4268C3690D6823F4E64343EAED
:1039500005238D6824F4005444EA0534064DA8423A
:1039600004D14D6922F4804242EA85124260C3616B
:1039700049680164046230BD0000014010B5036A6B
:10398000046A24F001040462846924F0F00444EA27
:10399000021423F00A020A438461026210BD10B5CA
:1039A000036A23F0100303628369046A23F47043FB
:1039B00043EA023224F0A00343EA0111826101626A
:1039C00010BDFEE737B514460846064B6A46214649
:1039D00000F034F904466946002000F0C6FC204699
:1039E0003EBD00006B4300080907090E002804DBF8
:1039F00000F1E02080F80014704700F00F0000F1A3
:103A0000E02080F8141D704710B52DED028BB0EE4C
:103A1000608AF0EE408A18EE101A18EE900AFCF751
:103A2000E8FE00F07040B0F1005F0CD018EE100A14
:103A300020F00040C0F1FF40C00F02BFB0EE480AC6
:103A4000BDEC028B10BDB0EE680ABDEC028B10BD60
:103A500010B52DED028BB0EE608AF0EE408A18EEC4
:103A6000101A18EE900AFCF7C4FE00F07040B0F196
:103A7000004F0CD018EE100A20F00040C0F1FF40BB
:103A8000C00F02BFB0EE480ABDEC028B10BDB0EE15
:103A9000680ABDEC028B10BD02E008C8121F08C105
:103AA000002AFAD170477047002001E001C1121FBF
:103AB000002AFBD1704700002DE9FF5F82B0002192
:103AC000DDE90430020DDDF840B0034318D044F6C0
:103AD0001050A2F2FF3242431514119801281FD052
:103AE000A5EB0B00401C5FEA000A4FF000064E4FAA
:103AF000DFF83891B046504615D5CAF1000413E0FE
:103B0000119801244AA3012801D16FEA0B01029800
:103B1000119AC0E90031C0E9024206B0BDE8F09F49
:103B2000CBF10000DFE704460021404A491842EB90
:103B30000450CDE9001012E0E00707D032463B46C2
:103B400040464946FCF72CFC8046894632463B46B7
:103B500010461946FCF724FC06460F466410002C5C
:103B6000EAD1DDE90401DDE90023BAF1000F06DA4C
:103B7000FCF716FC42464B46FCF712FC05E0FCF74E
:103B800081FC42464B46FCF77DFC04460E46002273
:103B9000284BFCF707FD03D84FF0FF30014607E044
:103BA0000022254B20463146FCF753FBFCF709FE6B
:103BB000102409E0002C0ADB0A220023FCF706FB94
:103BC000039B30321A55641E50EA0102F2D1641C84
:103BD000039AC4F111031444119A012A03D001225B
:103BE00008430DD10AE0084304D000204FF0110B28
:103BF000119072E7A3EB0B056D1E0DE05B4504DD34
:103C00004FF0000205F1010504E003DA4FF0000275
:103C1000A5F10105002AECD002981199C0E9023102
:103C2000C0E9004579E70000000014400000F03FC3
:103C3000300000000000F0430000E03F2DE9FF4F9E
:103C400095B09B468946064600250FE2252877D188
:103C500000242746F84A0121059400E0044316F8A1
:103C6000013F203B01FA03F01042F7D130782A28B7
:103C700011D06FF02F033078A0F13002092A16D846
:103C8000059A44F0020402EB820203EB4202104464
:103C9000761C0590EFE759F8042B0592002A03DA09
:103CA000504244F40054059044F00204761C3078ED
:103CB0002E2816D116F8010F44F004042A280DD03E
:103CC0006FF02F023078A0F13003092B09D807EBF1
:103CD000870302EB4303C718761CF3E759F8047B0C
:103CE000761C30786C280FD006DC4C2817D068285A
:103CF0000DD06A2814D104E0742810D07A280FD18E
:103D00000DE044F400140AE044F4801401E044F4AB
:103D100040147278824202D104F58014761C761C1D
:103D2000307866280BD013DC582877D009DC0028BF
:103D300075D04528F6D04628F4D047281AD19DE101
:103D400018E0632835D0642879D0652812D195E130
:103D5000702873D008DC6728F1D069286FD06E28EE
:103D60000DD06F2806D1B5E073282CD0752875D0FA
:103D7000782874D05A46179990476D1C75E1C4F3A2
:103D80000250022809D003280DD0D9F800100428C9
:103D90000DD00D6009F1040967E1D9F80010EA17A8
:103DA000C1E90052F6E7D9F800100D80F2E70D7076
:103DB000F0E719F8041B8DF8001000208DF80100C1
:103DC000EA46012003E059F804AB4FF0FF306107E9
:103DD0004FF0000102D40DE008F101018846B9421C
:103DE0000FDA8045F8DB1AF808100029F4D108E052
:103DF00008F1010188468142FADB1AF8081000290F
:103E0000F6D105985B46A0EB080721463846179A7D
:103E100000F094FA284400EB080507E04DE029E1A2
:103E20000DE01AF8010B5A4617999047B8F10108AE
:103E3000F7D25B4621463846179A13E142E00A2240
:103E40000092C4F302524FF0000A022A08D059F837
:103E500004CB032A4FEAEC710AD00DE029E02AE0F6
:103E600009F1070121F00702F2E802C1914609E0D9
:103E70000FFA8CFC4FEAEC71042A03D14FFA8CFC48
:103E80004FEAEC71002907DA0A460021DCF1000C48
:103E900061EB02012D2202E0220504D52B228DF8D0
:103EA0000420012203E0E20701D02022F7E7904638
:103EB00059E00A2102E010220DE010214FF0000A23
:103EC00000910BE010224FF0000A44F00404082790
:103ED000009203E008224FF0000A0092C4F302525D
:103EE000022A05D059F804CB0021032A08D009E0A2
:103EF00009F1070121F00702F2E802C1914605E04D
:103F00001FFA8CFC042A01D10CF0FF0C4FF00008C2
:103F1000220728D5702806D0009B83F0100353EAAF
:103F20000A0305D00EE040228DF80420012208E0AB
:103F30005CEA010206D030228DF804208DF80500DD
:103F400002229046009B83F0080353EA0A030AD139
:103F50005CEA010201D1620705D530228DF8042008
:103F60004FF001087F1E582804D034A003900EA8FB
:103F700002900DE036A0F9E753466046009AFCF740
:103F800025F984460398825C0298401E02900270D4
:103F90005CEA0100F0D1029806A9081A00F1200A93
:103FA000600702D524F4803400E00127574502DD84
:103FB000A7EB0A0000E0002000EB0A010090059842
:103FC0004144401A0590E00306D45B462146179A07
:103FD000059800F0B3F90544002706E001A85A4609
:103FE000C05D179990476D1C7F1C4745F6DBE003C9
:103FF0000CD55B462146179A059800F09FF90544B9
:1040000004E030205A46179990476D1C0099481ECD
:1040100000900029F5DC08E0029802995A460078E1
:10402000491C0291179990476D1CBAF10001AAF141
:10403000010AF1DC65E1000009280100303132336A
:1040400034353637383961626364656600000000D4
:1040500030313233343536373839414243444546BE
:104060000000000000F058F90544761C3078002864
:104070007FF4ECAD19B02846BDE8F08F620700D49C
:10408000062709F1070222F0070CFCE80223E146AB
:1040900003F000485FEA080C02D00FF2702C0DE02C
:1040A0005FEA045C02D50FF2682C07E05FEAC47C8B
:1040B00002D00FF2602C01E0AFF2700C4FF0FF382D
:1040C00023F00043CDF850C065280CD006DC45280D
:1040D00009D046281DD047283DD13DE0662818D09C
:1040E00067287ED138E00021112F01DB112000E08C
:1040F000781CCDE9000106A90EA8FFF7DDFCDDE97B
:104100000F010E9A03910021009207F1010A049118
:104110004DE04FF000400097CDE9011006A90EA830
:10412000FFF7CAFCDDE90F0203920E9B11990022F2
:10413000DDF80CA00093049211B9791C00EB010A80
:10414000B7EB0A0004D4C0F1FF3007F1010A049074
:10415000AAEB0700019044E0012F00DA01270021BB
:10416000112F01DD112000E03846CDE9000106A93C
:104170000EA8FFF7A1FCDDE90F010E9A03910021C3
:1041800004910092BA4621070CD40399514500DAF4
:104190008A46BAF1010F05DD009AAAF10101515CCE
:1041A000302908D0B84202DA10F1040F06DA0121F2
:1041B000CDE9011015E0AAF10101E9E7002805DCCD
:1041C000049901440491AAEB000102E0411C51450D
:1041D00000DD8A460499401A401C01904FF00040CF
:1041E0000290200704D40198504501DBCDF80480EB
:1041F00000208DF84F0002980DF14F07B0F1004FED
:1042000025D02B200E9002984FF0020800280CDADF
:10421000404202902D200E9007E00A210298FCF700
:10422000F5F93031029007F8011DB8F10001A8F14D
:104230000108F2DC02980028EFD1791E0E98087070
:10424000307800F0200040F0450007F8020D12A879
:10425000C01B00F107081498007800B1012000EBA2
:104260000A01019801EBE07105984144401A401E93
:104270000590E00306D45B462146179A059800F0A6
:104280005DF805441498007818B15A46179990477C
:104290006D1CE00324D55B462146179A059800F073
:1042A0004DF805441CE00498002807DBDDE9030114
:1042B000884203DD0098405C179901E0179930208F
:1042C0005A469047049805F10105401C0490019856
:1042D000401E019004D12E205A46179990476D1C1C
:1042E000BAF10001AAF1010ADDDC05E017F8010BC3
:1042F0005A46179990476D1CB8F10001A8F10108C2
:10430000F4DC5B462146179A0598ABE62D000000C9
:104310002B000000200000002DE9F041044600259C
:104320001E461746880404D405E039462020B047CD
:104330006D1C641EF9D52846BDE8F0812DE9F041D9
:10434000044600251E469046C80301D5302700E0EC
:104350002027880404D505E041463846B0476D1C47
:10436000641EF9D52846BDE8F0810A68531C0B602D
:104370001070704710B5002821D0114B0022001F8B
:10438000196803E0814203D80A4649680029F9D137
:1043900052B11368841A9C4204D10068184410601A
:1043A000104602E0506000E0186039B102680B1A54
:1043B000934203D10B681A4402604968416010BD02
:1043C000280000202DED028B82B0FDF7BDF8FFF72D
:1043D00077F9FEF721FCFEF76FFCFEF7EDFBFEF729
:1043E0008BFCFEF7A9FCFEF779FDFEF7ABFDFEF7AF
:1043F000C3FCFEF727FDFEF74EFEFEF7FFFDFFF7BD
:104400001DF804216E48FDF735FE00216D48FDF7CB
:1044100031FE00210120FEF7CBFD00210220FEF736
:10442000C7FD00210120FEF7D7FD00210220FEF785
:10443000D3FD654F012280213846FCF746FD9FEDF4
:10444000638A634C01254FF42F764FF4C87800BF80
:10445000FFF74CF8B5EEC00A84ED040AF1EE10FA4D
:104460000DDD0022802138466561FCF72EFD3146C6
:104470000120FEF7B1FD31460220FEF7ADFD606977
:1044800070B1544920698842E2DD00210120FEF725
:10449000A3FD00210220FEF79FFD60690028D7D10F
:1044A0004D48FCF7CFFB64214B48FCF779FB60B12A
:1044B0001023802219460020FEF7B4FD47A30822EE
:1044C00010210020FEF735FE70E04348FCF70AFBA0
:1044D00080B200EE100AB8EE400ADFED450A60EE49
:1044E000200A9FED441A444980EE810A10EE100A1A
:1044F00084ED000A88420ADDDFED400A30EE600AF2
:10450000DFED3F0A80EE801A84ED011A01E084EDB0
:10451000018AF0EE480A94ED010AFFF799FAF0EEED
:10452000400AB2EE040AFFF76FFA84ED010A102385
:10453000802220210020FEF775FD6068FCF71EF840
:10454000CDE900012FA3082220210020FEF7F1FD74
:1045500094ED020AB5EEC00AF1EE10FA02D194ED24
:10456000010A09E0DFED2A0A9FED2A1A20EE200A4F
:10457000D4ED010A00EE810A274910EE100A84EDFD
:10458000020A884201DAE56013E02449884202DD2C
:104590000220E06002E0E06801280AD031460120F4
:1045A000FEF71AFD41460220FEF716FDFEF7AAFEB1
:1045B0004EE741460120FEF70FFD3146F3E70000CC
:1045C00074050020B4050020000802400000A0424D
:1045D000000000200000F04130040020414443204E
:1045E0004572726F722120202020202020000000C0
:1045F0003333534000F07F45CDCCCC3E7B832F3E00
:10460000EC519241446973743A252E3166636D0012
:104610003333333F9A99993E0000C0410000D041A6
:10462000F0B50B30154D20F007010024144A0FE0BF
:1046300003688B420BD38B4205D95E1A4318476837
:10464000C3E9006700E04368136002C004E0021D94
:1046500010680028ECD12046002802D1286808B153
:104660000020F0BD064A07481060074A121A22F0DF
:104670000702C0E9002401202860D7E72C000020B1
:10468000280000207C0600207808002000000000A0
:10469000000000000000000000000000000000F822
:1046A00000000000000000333000000000160E0083
:1046B000160E0000000000000000000040C078401E
:1046C000C0784000043F04043F040400007088FCEC
:1046D00008300000001820FF211E0000F008F00044
:1046E000E018000000211C031E211E0000F00888B5
:1046F000700000001E21232419272110000000163D
:104700000E0000000000000000000000000000E0BB
:1047100018040200000000071820400000020418DE
:10472000E00000000040201807000000404080F03A
:10473000804040000202010F01020200000000F070
:10474000000000000101011F010101000000000044
:104750000000000000B07000000000000000000039
:104760000000000000010101010101010000000042
:1047700000000000003030000000000000000000D9
:1047800080601804006018060100000000E01008B6
:104790000810E000000F102020100F00001010F88B
:1047A000000000000020203F2020000000700808CA
:1047B000088870000030282422213000003008884A
:1047C000884830000018202020110E000000C02072
:1047D00010F8000000070424243F240000F8088893
:1047E000880808000019212020110E0000E0108820
:1047F00088180000000F112020110E000038080852
:10480000C83808000000003F000000000070880861
:1048100008887000001C222121221C0000E01008E2
:104820000810E0000000312222110F00000000C03B
:10483000C00000000000003030000000000000C098
:10484000C0000000000080B0700000000000804048
:1048500020100800000102040810200040404040E1
:104860004040400004040404040404000008102034
:104870004080000000201008040201000070480879
:104880000808F0000000003036010000C030C828E1
:10489000E810E0000718272423140B000000C0389C
:1048A000E0000000203C23020227382008F8888816
:1048B00088700000203F202020110E00C030080822
:1048C00008083800071820202010080008F80808F9
:1048D0000810E000203F202020100F0008F88888F2
:1048E000E8081000203F20202320180008F88888BE
:1048F000E8081000203F200003000000C030080836
:104900000838000007182020221E020008F80800BE
:104910000008F808203F210101213F20000808F885
:10492000080800000020203F2020000000000808A8
:10493000F8080800C08080807F00000008F888C068
:1049400028180800203F20012638200008F8080019
:1049500000000000203F20202020300008F8F80050
:10496000F8F80800203F003F003F200008F830C062
:104970000008F808203F200007183F00E010080852
:104980000810E0000F10202020100F0008F8080881
:104990000808F000203F210101010000E010080894
:1049A0000810E0000F18242438504F0008F88888B9
:1049B00088887000203F2000030C30200070880899
:1049C000080838000038202121221C00180808F8A7
:1049D000080818000000203F2000000008F8080028
:1049E0000008F808001F202020201F0008788800F9
:1049F00000C83808000007380E010000F80800F869
:104A00000008F800033C0700073C03000818688012
:104A10008068180820302C03032C30200838C80088
:104A2000C83808000000203F2000000010080808D7
:104A3000C83808002038262120201800000000FE79
:104A4000020202000000007F40404000000C30C025
:104A500000000000000000010638C0000002020251
:104A6000FE000000004040407F00000000201008D1
:104A700004081020000000000000000000000000FA
:104A80000000000080808080808080800002040818
:104A90000000000000000000000000000000808016
:104AA000808000000019242222223F2008F8008084
:104AB00080000000003F112020110E000000008047
:104AC00080800000000E11202020110000000080D6
:104AD0008088F800000E112020103F200000808008
:104AE00080800000001F222222221300008080F01C
:104AF000888888180020203F202000000000808047
:104B000080808000006B94949493600008F800808B
:104B100080800000203F210000203F2000809898E6
:104B2000000000000020203F202000000000008046
:104B30009898000000C08080807F000008F8000086
:104B400080808000203F24022D302000000808F8DB
:104B5000000000000020203F202000008080808096
:104B600080808000203F20003F20003F00808000A8
:104B70008080000000203F2100203F200000808036
:104B800080800000001F202020201F0080800080E7
:104B90008000000080FFA12020110E000000008096
:104BA00080808000000E112020A0FF808080800087
:104BB0008080800020203F212000010000008080B4
:104BC000808080000033242424241900008080E0A9
:104BD000808000000000001F202000008080000076
:104BE00000808000001F202020103F208080800057
:104BF0000080808000010E30080601008080008067
:104C0000008080800F300C030C300F00008080008B
:104C1000808080000020312E0E31200080808000B6
:104C20000080808080818E70180601000080808066
:104C3000808080000021302C222130000000000004
:104C4000807C020200000000003F404000000000A5
:104C5000FF00000000000000FF0000000002027CD6
:104C6000800000000040403F000000000080404005
:104C70008000008000000000000101000000000032
:104C800000000000002F00000000070007000014D3
:104C90007F147F1400242A7F2A12002313086462E1
:104CA00000364955225000000007000000001C2279
:104CB0004100000041221C000014083E08140008B6
:104CC000083E0808000000A0600000080808080866
:104CD000000060600000002010080402003E5149FE
:104CE000453E0000427F400000426151494600219C
:104CF00041454B31001814127F10002745454539B6
:104D0000003C4A4949300001710905030036494910
:104D1000493600064949291E0000363600000000C9
:104D20005636000000081422410000141414141414
:104D3000000041221408000201510906003E4955B5
:104D4000592E007C1211127C007F49494936003EE1
:104D500041414122007F4141221C007F4949494194
:104D6000007F09090901003E4149497A007F08088E
:104D7000087F0000417F4100002040413F01007F4B
:104D800008142241007F40404040007F020C027F17
:104D9000007F0408107F003E4141413E007F090929
:104DA0000906003E4151215E007F0919294600464F
:104DB000494949310001017F0101003F4040403F26
:104DC000001F2040201F003F4038403F0063140870
:104DD000146300070870080700615149454300004B
:104DE0007F414100000204081020000041417F0083
:104DF0000004020102040040404040400000010263
:104E00000400002054545478007F4844443800384B
:104E10004444442000384444487F003854545418D3
:104E200000087E0901020018A4A4A47C007F0804E5
:104E300004780000447D4000004080847D00007FB5
:104E4000102844000000417F4000007C04180478D2
:104E5000007C0804047800384444443800FC2424CE
:104E600024180018242418FC007C080404080048B6
:104E70005454542000043F444020003C4040207CD7
:104E8000001C2040201C003C4030403C00442810C6
:104E90002844001CA0A0A07C004464544C440000A2
:104EA000087F41000000007F00000000417F0800F3
:104EB00000080408100800000000000000000102C3
:104EC00003040607080900000000010203040000B3
:104ED000F04E00080000002030000000983A000862
:104EE000204F000830000020480C0000A83A0008BD
:104EF00000000000000000000000000000000000B2
:104F00000000000000000000010000001000000090
:104F1000000000000024F400000000000000000079
:040000050800019559
:00000001FF
